:1000000031C324C5FDCF8AC6FBCFFACF5AC6F8CF7D
:10001000F7CFF6CFF5CFF4CFF3CFF2CFF1CFF0CFCC
:10002000EFCFEECFEDCF0000000000000074000025
:100030000060006000007C287C000034D658000876
:10004000606C0C2000785418200000600000000054
:1000500038440000443800000050205000001038A0
:100060001000000C0C02000010101000000C0C001E
:10007000000408102040007C447C0000207C00002C
:10008000005C5474000054547C000070107C00002C
:1000900074545C00007C141C000040407C00007C18
:1000A000547C000074547C00006C6C000000026CF6
:1000B0006C00001028440000282828000044281064
:1000C0000000204A3000007C547400003C483C0092
:1000D000007C5438000038444400007C4438000060
:1000E0007C545400007C505000007C545C00007C28
:1000F000107C0000447C4400004C447C40007C1098
:100100006C00007C0404007C2010207C003C4040FB
:100110003C0038443800007C507000007C44780279
:10012000007C503804003454580040407C404078F3
:10013000040478000078047800780478047844286F
:1001400010284400700C7000004C546400007C4483
:10015000440000201008040044447C00002040209B
:100160000004040404040000004000003C483C007B
:10017000007C544800007C543800007C4060000C37
:100180007050700C007C54540044287C2844005467
:10019000547C00007C08107C007C08907C007C1063
:1001A0006C00003C407C007C2010207C007C107C9B
:1001B000000038443800007C407C00007C50700017
:1001C000003844440040407C40400074147C00707F
:1001D000507C5070006C106C00007C047C0200703D
:1001E000107C007C047C047C7C047C047E407C14B9
:1001F00008007C14087C00007C140800005454386B
:10020000007C107C447C0428507C000000FFFFDB55
:10021000DBDBDFDF00000000FFFFC0603018306074
:10022000C0FFFF000000C0C0C0C0FFFFC0C0C0C012
:100230000000000000FFFFDBDBDBDFDF0000000071
:10024000FFFFC06030183060C0FFFF000000C0C07A
:10025000C0C0FFFFC0C0C0C0000000000000000020
:10026000000000182442818181BD958981BDA19142
:10027000A1BD81A1BDA1818181814224180000001E
:1002800000000000000000000000001824428181EE
:1002900081BD958981BDA191A1BD81A1BDA18181B2
:1002A00081814224180000000000000000000000CE
:1002B0000008141414222222222222222222222284
:1002C000634141414141414141414141C1818181BC
:1002D00081818181818181818181C141414141410E
:1002E00041414141414163222222222222222222F3
:1002F0002222141414080000000000000000000076
:10030000003844824121418244380000000000004E
:10031000000000000038448247274782443800002C
:100320000000000000000000003844864F2F4F9E60
:100330005C380000000000000000000000387CFE77
:100340007F3F7FFE7C38000000000000C183C18336
:10035000C183C183C183C183C183C183C183C1837D
:10036000C183C183C183C183C183C183C183C1836D
:10037000C183C183C183C183C183C183C183C1835D
:10038000C183C183C183C183C183C183C183C1834D
:10039000C183C183C183C183C183C18381838183BD
:1003A000818381838183818381838183818381832D
:1003B000818381838183818381838183818381831D
:1003C000818381838183818381838183818381830D
:1003D00081838183818381838183818381838183FD
:1003E00081838183818381838183818381828182EF
:1003F00081828182818281828182818281828182E5
:1004000081828182818281828182818281828182D4
:1004100081828182818281828182818281828182C4
:1004200081828182818281828182818281828182B4
:10043000818281828182818281828182C183838360
:10044000C1838383C1838383C1838383C183838384
:10045000C1838383C1838383C1838383C183838374
:10046000C1838383C1838383C1838383C183838364
:10047000C1838383C1838383C1838383C183838354
:10048000C1838383C1838383C18383836400C80062
:1004900090012003F8FFFCFFFEFFFFFF00002C018E
:1004A000C804CF04D704DD04E404E804ED04F20436
:1004B000FA0403050B0512051A0526052E05340559
:1004C0003C0544054C050000DFEDE2E0F0FF00D400
:1004D000E5E2F0E0EBFF00CCE0F0F2E000C0EFF08E
:1004E000E5EBFF00CCE0FF00C8FEEDFF00C8FEEB2F
:1004F000FF00C0E2E3F3F1F2E000D1E5EDF2FFE14D
:10050000F0FF00CEEAF2FFE1F0FF00CDEEFFE1F0F8
:10051000FF00C4E5EAE0E1F0FF00CFEEEDE5E4E541
:10052000EBFCEDE8EA00C2F2EEF0EDE8EA00D1F013
:10053000E5E4E000D7E5F2E2E5F0E300CFFFF2ED1D
:10054000E8F6E000D1F3E1E1EEF2E000C2EEF1EA1C
:10055000F0E5F1E5EDFCE500C7E0EFF3F1EA2E2E62
:100560002E00C220EAEEECEDE0F2E53A006300C2B4
:10057000F0E5ECFF3A2020003000203230004156F8
:10058000522041544D454741203800C3C0CED320AE
:10059000D1CFCE20C1CCD200CAD0C5C0D2C8C200F3
:1005A000C32E20C1D3C3D3CBDCCCC000C4CBDF204F
:1005B000CAC0C7C0CDC8003D29203A29205E5F5E71
:1005C000203B2D2900424F4F4D212121203A2D441F
:1005D000000001002D4E414E00494E460000010032
:1005E00002009C040200E9029E041800EA03A00431
:1005F0000E000204B8040A006002580501006A02F5
:10060000CE040B006B026205020076026D05090044
:1006100078026F05020081026B05020083027805F3
:10062000020085027605040087027A050D008B0220
:100630007E050D0098028B050800A50298050C00A8
:10064000AD02A0050B00B902AC050E00C402B7054F
:100650000C00D202C50502000400C6040100170404
:10066000D2050000F894EE27ECBBF1E0FBBFEBBF36
:10067000E5BFF8E1F1BDE1BD8DE0A2E0BB27ED9360
:100680008A95E9F780E094E0A0E6ED930197E9F719
:10069000EEEDF5E085919591009761F0A591B5910A
:1006A00005901590BF01F00105900D920197E1F7BB
:1006B000FB01F0CFEFE5EDBFE4E0EEBFC0E6D2E036
:1006C0005DC3E2E1F4E0FA93EA93E1E1F4E0FA9346
:1006D000EA93E0E1F4E0FA93EA93CCD6E3E1F4E0C4
:1006E000FA93EA93E4E1F4E0FA93EA93E5E1F4E0C3
:1006F000FA93EA93E6E1F4E0FA93EA93E1D60895F7
:10070000E0E0E8BBEFEFE7BBE0E0E5BBEFEFE4BB29
:10071000E4E0E2BBEBEFE1BBE0E0E3BFE2BFEFBD53
:10072000EAE0EEBDE0E0EDBDECBDE7BDE6BDA0E07A
:10073000B0E007D9F29738F0A0E0B0E002D9EF3F7F
:10074000A1E0FA0728F0A0E0B0E0EAEFF0E009D974
:10075000A0E0B0E0F6D8FBBDEABDA2E0B0E0F1D881
:10076000F9BDE8BDE0E0E9BDE8BDE2BDEBE0E5BD17
:10077000E0E0E4BDA2E0B0E0E4D83A9738F0A2E0CF
:10078000B0E0DFD8EF3FA0E0FA0728F0A2E0B0E049
:10079000EFE2F0E0E6D8A2E0B0E0D7D8E3BDEBB7F7
:1007A000E064EBBFE2E0E5BFE0E4EABFE0E9E9BF17
:1007B000E0E0EAB9E0E8E8B9E0E0E0BFE6B9EDB9C9
:1007C000E6BFB8D6E0E0EA93E1E0EA93E0E0EA933E
:1007D00035D60ED7E0E0F0E0FA93EA93E2EEEA9342
:1007E000ECE3EA93E1E0EA93E0D5E0E0F0E0FA93AD
:1007F000EA9384D50895E881F9813197E883F983F4
:1008000021F081E08A95F1F7F6CF02C11A93A98110
:10081000A03E20F0E981F0E0B097E983A981A136FC
:1008200010F0AF3708F004C0E981F0E0B09707C0DE
:10083000A981A13628F0E981F0E0EF55F040E98385
:1008400010E0153018F5AA81E5E0EA9FF001DF011C
:10085000E12FF0E0EA0FFB1FE351FD4FBF01E981FB
:10086000F0E0B097A5E0B0E02ED8EA5DFF4FDF01E1
:10087000E12FF0E0EA0FFB1FE491DB01EC93E1E0F4
:10088000F0E0FA93EA93A8D61F5FDBCF1881F0C59A
:100890001A9310E0EDEEF2E0FA93EA931ED0AA81EB
:1008A000BB81EE27A10FBE1FEC91E03099F01A93A7
:1008B000E12F1F5FAB81BC81F0E0AE0FBF1FEC9159
:1008C000EA93A4DFE981E03021F0F0E0FA93EA93C3
:1008D00083D6E5CF188124960895E881F981FA93AB
:1008E000EA93E0E0EA93E0E5F0E0FA93EA9318D4C3
:1008F0008FC05BD800E0AD9818E0113080F0E12F98
:10090000A1E0C6D7E2BB929902C0AB9801C0AB9AF6
:10091000E4E6F0E0FA93EA935FD61150EECFE0E020
:10092000E2BB929902C0AB9801C0AB9AE2E3F0E05F
:10093000FA93EA9351D610E0183088F4E12FA1E041
:10094000A7D70E2B02BB929902C0AB9801C0AB9AFD
:10095000E4E6F0E0FA93EA933FD61F5FEDCFE8EECE
:10096000F3E0FA93EA9338D6AC9818E0113058F0D7
:10097000E12FA1E08DD7E8BBE4E6F0E0FA93EA933B
:100980002BD61150F3CFE0E0E8BBE2E3F0E0FA93BE
:10099000EA9322D610E0183068F418B2E12FA1E0F3
:1009A00077D7E129E8BBE4E6F0E0FA93EA9314D6BE
:1009B0001F5FF1CFE8EEF3E0FA93EA930DD6FDD78F
:1009C0000895E881E150E883EF5F31F0E8EEF3E06D
:1009D000FA93EA9301D6F5CF219608951A9310E081
:1009E0001035A8F4E12FF0E0E35CFC4FBF01E98192
:1009F000A0E5EA9FF001E45FFD4FDF01E12FF0E0A9
:100A0000EA0FFB1FE491DB01EC931F5FE9CF188134
:100A1000229608950AB41BB4A0E0B0E092D7E01586
:100A2000F10529F0EAB5FBB5A0E0B0E09AD703B430
:100A3000A2E0B0E086D7A02DB0E0EA17FB0729F0CE
:100A4000E3B5A2E0B0E0F0E08CD708950A921A92E4
:100A5000FA926A937A938A939A93AA93BA93EA93AF
:100A6000FA93EFB7EA93829B0EC0E991EFBFF99139
:100A7000E991B991A9919991899179916991F990A7
:100A80001990099018958DE08A95F1F7829B0EC018
:100A9000E991EFBFF991E991B991A9919991899162
:100AA00079916991F990199009901895EBB7EF7BBE
:100AB000EBBF80EA8A95F1F7E0E0E093E702E0938C
:100AC000E802E093E903A091E903AD3040F5E0913D
:100AD000E702F091E802EE0FFF1FE093E702F093C8
:100AE000E802E6EBF1E0FA93EA9385DE829B11C01F
:100AF0008DE08A95F1F7829B0CC08DE08A95F1F725
:100B0000829B07C0A7EEB2E0ED91FD913196FE9376
:100B1000EE93E091E903EF5FE093E903D4CFA9EE10
:100B2000B2E0ED91FD913196FE93EE93E091E702F4
:100B3000F091E802E07C309709F0AFC0689421F8AA
:100B4000E091E702F091E802E130A0E0FA0721F03D
:100B5000E230A0E0FA0709F404C0E330A0E0FA07AD
:100B600009F404C0E430A0E0FA0709F404C0E53059
:100B7000A0E0FA0709F404C0E630A0E0FA0709F49F
:100B800004C0E730A0E0FA0709F404C0E830A0E0B0
:100B9000FA0741F4E091E702F091E8023197EA9315
:100BA0001DDF76C0E531A0E0FA0759F4EAB5FBB5E0
:100BB000F39730F0EAB5FBB53197FBBDEABD31964E
:100BC00067C0E631A0E0FA0769F4EAB5FBB5EE3F8D
:100BD000A1E0FA0730F4EAB5FBB53196FBBDEABDFA
:100BE000319756C0E031A0E0FA0741F4E3B5EA3F9F
:100BF00020F4E3B5EF5FE3BDE1504AC0E131A0E08E
:100C0000FA0741F4E3B5E53120F0E3B5E150E3BD87
:100C1000EF5F3EC0E231A0E0FA07D1F1EC30A0E096
:100C2000FA0779F4A0E0AD99A1E0E1E0EA2711F438
:100C3000AD9801C0AD9AE03011F4AC9801C0AC9A07
:100C400027C0EF30A0E0FA0741F4A0E020FCA1E0CB
:100C5000E1E0EA27A3D620F81BC0E833A0E0FA07BA
:100C600051F4A0E0AC99A1E0E1E0EA2711F4AC98DE
:100C700001C0AC9A0DC0EF33A0E0FA0749F4A0E040
:100C8000AD99A1E0E1E0EA2711F4AD9801C0AD9A79
:100C9000EAE0F0E0FA93EA939FD4EAB7E064EABFAF
:100CA000EBB7E064EBBFE991EFBFF991E991B9913E
:100CB000A9919991899179916991F99019900990E7
:100CC0001895AA93EA93FA93EFB7EA9320FC0AC027
:100CD000E091EC02EF5FE093EC02E150F0E0E351D1
:100CE000FD4F09C0E091EC02EF5FE093EC02E150B0
:100CF000F0E0E35CFC4FE081E8BBA091EC02A035A2
:100D000018F0E0E0E093EC02E0E0F0E0FDBDECBDC7
:100D1000E991EFBFF991E991A9911895AA93EA9306
:100D2000FA93EFB7EA9320FE0AC0E091EB02EF5F7F
:100D3000E093EB02E150F0E0E351FD4F09C0E09198
:100D4000EB02EF5FE093EB02E150F0E0E35CFC4F7D
:100D5000E081E2BB929902C0AB9801C0AB9AA0912E
:100D6000EB02AF3418F0E0E0E093EB02E0E0E4BD2A
:100D7000E991EFBFF991E991A991189500E010E090
:100D8000BFDCEDEEF2E0FA93EA93A7DDB2DDE0E03E
:100D9000E2BB929902C0AB9801C0AB9AE0E0E8BB1D
:100DA000AD98AC98E0EDF7E0FA93EA9315D4789417
:100DB000E0E0E2BB929902C0AB9801C0AB9AAD985B
:100DC000E0E6F2E0FA93EA93E8EEEA9361DDE3E02D
:100DD000EA93F7DD0AE010E0002400160106C0F4F3
:100DE000F80166277727A8D5EDEDF3E0FA93EA93AB
:100DF000D8D1EDEDF3E0FA93EA93E0E0EA9348DD31
:100E0000E8EEF3E0FA93EA93E7D301501040E4CF21
:100E1000E6E0EA93E3DDEAE6F2E0FA93EA93E8EE4D
:100E2000EA9336DDF7DDE0E0F0E0FA93EA9366D28C
:100E300074D42F01309759F0EEECFFEF4E165F0699
:100E40002CF0E0E5F0E0E415F5050CF401C006C077
:100E5000E5E0F0E0FA93EA93BFD3E5CFF20129D5BC
:100E60006BD5EDEDF3E0FA93EA939BD1EDE8F3E077
:100E7000FA93EA9332DDEDE8F3E0FA93EA93EBE6D6
:100E8000F2E0FA93EA9359D1EDE8F3E0FA93EA93AA
:100E9000EDEDF3E0FA93EA9350D1EDE8F3E0FA9345
:100EA000EA93E6E7F2E0FA93EA9347D1EDE8F3E05C
:100EB000FA93EA93E8EEEA93EBDCEAE0EA9381DD69
:100EC000EDE8F3E0FA93EA9308DDFBDBEDE8F3E00D
:100ED000FA93EA93E8E7F2E0FA93EA934CD1E091CF
:100EE0001204F0E0E6D428D5EDEDF3E0FA93EA93AE
:100EF00058D1EDE8F3E0FA93EA93EDEDF3E0FA93DD
:100F0000EA931BD1EDE8F3E0FA93EA93E1E8F2E02B
:100F1000FA93EA9312D1E0911104F0E0CAD40CD50F
:100F2000EDEDF3E0FA93EA933CD1A0911104AA30DD
:100F300048F4EDE8F3E0FA93EA93E3E8F2E0FA9399
:100F4000EA93FBD0EDE8F3E0FA93EA93EDEDF3E0FA
:100F5000FA93EA93F2D0EDE8F3E0FA93EA93E8EE3D
:100F6000EA9396DCEAE0EA932CDDEDE8F3E0FA930D
:100F7000EA93E0911304F0E03197A2E0B4E0EE0FC1
:100F8000FF1FAE0FBF1FD0D4FA93EA93FFD0EDE856
:100F9000F3E0FA93EA93E8EEEA937ADCEAE0EA9384
:100FA00010DDE0911404F0E084D4C6D4EDEDF3E05C
:100FB000FA93EA93F6D0EDE8F3E0FA93EA93EDEDD5
:100FC000F3E0FA93EA93D7D0EDE8F3E0FA93EA93EB
:100FD000E5E8F2E0FA93EA93B0D0EDE8F3E0FA93B3
:100FE000EA93E0911504F0E03197AAEEB3E0EE0F3A
:100FF000FF1FAE0FBF1F98D4FA93EA93ADD0EDE870
:10100000F3E0FA93EA93E7E8F2E0FA93EA9395D0F3
:10101000E0911604F0E04DD48FD4EDEDF3E0FA93B7
:10102000EA93BFD0EDE8F3E0FA93EA93EDEDF3E055
:10103000FA93EA9382D0EDE8F3E0FA93EA93E8EECC
:10104000EA9326DCEAE0EA93BCDCEBE8F2E0FA9310
:10105000EA93E0EDEA931CDCEAE0EA93B2DCE8E92B
:10106000F2E0FA93EA93E0EDEA9312DCEAE0EA9325
:10107000A8DCE5EAF2E0FA93EA93E0EDEA9308DC13
:10108000EAE0EA939EDCEDEAF2E0FA93EA93E0ED1F
:10109000EA93FEDBEAE0EA9394DCE9EBF2E0FA9310
:1010A000EA93E0EDEA93F4DBEAE0EA938ADCE4EC2D
:1010B000F2E0FA93EA93E0EDEA93EADBEAE0EA93FE
:1010C00080DCEDE8F3E0FA93EA9307DC04E610E055
:1010D000002400160106C0F4F801662777272CD4F7
:1010E000EDEDF3E0FA93EA935CD0EDEDF3E0FA93E3
:1010F000EA93E0E0EA93CCDBE4E6F0E0FA93EA93EB
:101100006BD201501040E4CFE2EDF2E0FA93EA93A3
:10111000E8E8EA93BDDBE3E0EA9353DC83CEFFCF5C
:10112000B981A881109631F0FC81EB816A816193CD
:101130001197E9F7EB81FC817FC1E991F991A991C0
:10114000B991CD016D916623E9F7119761916D9386
:101150006623E1F7FC010895E991F991A991B9910C
:10116000CD016D916623E9F7119705900D9200204E
:10117000E1F7FC010895E991F991A991B991CD01A7
:1011800061916D936623E1F7FC010895E991F9916E
:10119000A991B991CD0105900D920020E1F7FC01D4
:1011A0000895249702D4E0E0FAEC6AE97BE3EA834D
:1011B000FB836C837D8300E0AB85AA238AF4E885FA
:1011C000F9856A857B855CD3E887F9876A877B87A1
:1011D000AE81BF811196AE83BF831197EDE2EC9390
:1011E000EA81FB816C817D81A885B9858A859B8593
:1011F00072D31E2F103071F4003061F4AA81BB81CC
:101200008C819D81A130E0E0BE07E0E08E07E0E048
:101210009E0751F4AE81BF811196AE83BF831197B3
:10122000E12FE05DEC9301E0EA81FB816C817D813F
:10123000A885B9858A859B8573D3E887F9876A87EE
:101240007B87AA81BB818C819D81EAE0F0E060E030
:1012500070E041D3EA83FB836C837D839BD309F0E9
:10126000BFCFAE81BF81E0E0EC93A4D32C9608956C
:101270001A93BED1E03019F4E0E01881F9C0E98199
:10128000FA81309779F0E5E5EA93F8D110E0A98189
:10129000BA81ED91A983BA83EA93F0D11F5F183028
:1012A000B0F303C0ECECEA93E9D1E1E01881E0C0CF
:1012B0007AD3EC81FD81FA93EA93DADFE03019F416
:1012C000E0E076D3FBC0EEEBEA93D8D110E02EED50
:1012D00032E03F932F932F5F3F4FCBD1AF91BF9120
:1012E000EC931F5F1930A8F3EEEDF2E0FA93EA9366
:1012F000E9E0EA93CDD1E2D25BD3E0C01A93E98171
:10130000FA81FA93EA93D4DFE03031F4E0E0FCE3D1
:101310006CE176EC1881ACC0A091E202B0E0E5E0AF
:10132000BFD2E3701E2FE981FA81FA93EA93A0DF1E
:10133000E03031F4E0E0FCE36CE176EC188198C039
:10134000E4E4EA939BD1E12FACE8B4E0F0E0EE0FE7
:10135000FF1FEA0FFB1FECD2FA93EA933DD1E9811C
:10136000FA81FA93EA93A4DFE03031F4E0E0FCE3A1
:101370006CE176EC18817CC03BD1E12FA4E9B4E0AC
:10138000F0E0EE0FFF1FEA0FFB1FD2D2A091DE02AA
:10139000B091DF02EA23FB238CD2F6D1A0E0B0E0CB
:1013A00080E89DE31FD2188163C0EB81FC81FA9332
:1013B000EA935EDFE03011F4E0E03EC0E881E295C0
:1013C000E07FEE0FEF61E883EEE4EA9357D1E98125
:1013D000EA9354D1EA81EA9351D1E881EA934ED15C
:1013E000EB81FC81FA93EA9363DFE03011F4E0E0F3
:1013F00023C0A091E102EA81EA1751F4A091E00232
:10140000E981EA1729F4A091E202E881EA1711F0D4
:10141000E0E012C0EB81FC81FA93EA9329DFE0302F
:1014200011F4E0E009C0E8E4EA9328D1EFE0F0E04D
:10143000FA93EA93D1D0DCD025960895EA81E3703F
:10144000EA83E981E03019F0EA81E061EA83E8812A
:10145000E03019F0EA81E068EA8371D0E0EDEA93C8
:10146000A2D0E7E0EA939FD0EA81EA939CD076D0BD
:101470002396089564D0E0EDEA9395D0E0E0EA93F6
:1014800092D05DD0E1EDEA938ED0E1E0EA9370D0A6
:10149000EA9344D0A881B981EC93E1E0EA9368D063
:1014A000EA933CD0AA81BB81EC93E0E0EA9360D060
:1014B000EA9334D0AC81BD81EC9350D02696089548
:1014C0003ED0E0EDEA936FD0E3E0EA936CD037D002
:1014D000E1EDEA9368D0E1E0EA934AD0EA931ED0C6
:1014E000AE81BF81EC93E1E0EA9342D0EA9316D05B
:1014F000AC81BD81EC93E1E0EA933AD0EA930ED05F
:10150000AA81BB81EC93E0E0EA9332D0EA9306D063
:10151000A881B981EC9322D028960895E881E295BC
:10152000EF70AE2FAA0FAA0FEA0FEE0FA991AF70BE
:10153000EA0F0895A898A998A09AA19815C0A19813
:10154000A098EE270000999B0895989B089504D0D9
:10155000A19A02D0A09AE1E067E007C0A19AA09A00
:1015600003D0A098F9DFA1986DE06A95F1F708958E
:1015700078E0A098F1DF989BFECFEEDF88949999F0
:101580000894A09AF1DFEE1F7A9599F77991772365
:1015900011F4A19801C0A19ADFDFA098E5DFA09A1D
:1015A000DBDFA198D9CFE99178E0EE0F10F4A19894
:1015B00001C0A19AD9DFA098CFDF989BFECFCCDFE6
:1015C000A09A7A9591F7A198C7DFA098CDDFE1E0C6
:1015D0009999EE27A09AC0CFE991F991309639F008
:1015E00088EE93E00197F1F7A8953197C9F7089530
:1015F000EE27AA98A29A80EE91E00197F1F7A298BF
:1016000083E18A95F1F79A9B089585E68A95F1F72B
:101610009A9BE1E086E891E00197F1F70895A29A9C
:1016200083E08A95F1F7A2988FE08A95F1F7889484
:101630009A990894E7958BE68A95F1F70895E894CE
:10164000A29A83E08A95F1F770FDA29881E18A95CC
:10165000F1F79A9903C070FF03C0089570FF0895D1
:1016600084E68A95F1F7A29887E08A95F1F7689465
:10167000089568E0D4DF6A95E9F7089568E0799104
:10168000EE27DDDF26F477956A95D9F7E39508957F
:10169000EE278881882381F068E1A981BA8198E0EA
:1016A000FD917F2F7E27779508F4E627E795F6953D
:1016B0009A95B9F78A9599F723960895552342F498
:1016C000503811F4E0FF04C03196691F791F6BF0A8
:1016D00050E8572711F45F9373C05F3F31F0660FF6
:1016E000000C57956795752F08955F9300200AF0B9
:1016F00073C06CC050E8192E1522880F991F9527CA
:10170000550F879550E8072E0522660F771F75271E
:10171000550F67950895689401C0E8945F93F2DFD0
:10172000703818F07F3F08F44BC056E1571BAAF4FD
:10173000519558300EF4593030F0EFEFFFEF6FEF66
:101740007FE777F91AC077275523B9F0EE0FFF1F0F
:10175000661F771F5A95D1F710C07727583028F0A9
:10176000EF2FF62F672F5850F9CF552331F076958C
:101770006795F795E7955A95D1F700200AF480D040
:101780005F910895689401C0E8943097604070407C
:10179000B1F0002426F0772312F4009471D0172EB4
:1017A0007EE1112032F07A95EE0FFF1F661F111CAB
:1017B000F9CFEF2FF62F612D5F938ADF5F910895A8
:1017C000EE27FF27662777275F910895EFEFFFEF5A
:1017D0006FE77FEF5F910895EFEFFFEF6FE77FE730
:1017E0005F9108955F9386DF703851F3903841F32D
:1017F00001240894791F23F41CF300203AF3ECCF62
:101800000F921F932F933F934F93112722279927CE
:10181000689FA0018F9F302D410D591F6B9F300D88
:10182000411D591F8E9F27D0BF9F25D06A9F23D06F
:10183000BE9F1DD0AF9F1BD0AE9F110D291F391F1A
:10184000491F591FE32FF42F652F522F4F913F91BE
:101850002F911F910F9066232AF0550FEE1FFF1F47
:10186000661F02C073954BF229DF5F910895100D3A
:10187000211D391F02C0200D311D491F591F089518
:10188000F09560957095E195FF4F6F4F7F4F0895EC
:10189000EE230E2EEA2F19F0EE0F0A94E9F70895C1
:1018A000EE230E2EFD0121F0F595E7950A94E1F760
:1018B00008956F2F660F660B762F0895EE23E1E0F3
:1018C00009F0EE270895FA9FF02DEB9FF00DEA9FA7
:1018D000E02DF10D08953F934F935F930024112461
:1018E0004427552730E2AA0FBB1F881F991F001CF1
:1018F000111C441F551F0E1A1F0A460B570B28F4C4
:101900000E0E1F1E461F571F01C0A1603A9559F7C2
:10191000FD01BC01D001CA015F914F913F91089533
:10192000DADFFD01BC010895ED91FC911197089556
:101930000590F491E02D08957A936A93FA93EA93CF
:101940000895119602D0FE2F1197E199FECFFF93D3
:10195000FFB7F894AEBBBFBBE09AEDB3FFBFFF91FA
:10196000089507D01196EF93EF2F03D0EF911197C1
:101970000895E19B02C0A895FCCF9FB7F894AEBB39
:10198000BFBBE09A8DB3E81719F0EDBBE29AE19A7C
:101990009FBF08953097604070400895E894EE230B
:1019A00009F0689408953A932A931A930A93089534
:1019B0003B812A811981088108950991199108951F
:00000001FF
